{"_format":"hh-sol-artifact-1","contractName":"PoolFactory","sourceName":"contracts/PoolFactory.sol","abi":[{"inputs":[{"internalType":"string","name":"_poolName","type":"string"},{"internalType":"uint256","name":"_entryFee","type":"uint256"},{"internalType":"uint256","name":"_maximumPlayers","type":"uint256"}],"name":"createNewPool","outputs":[{"internalType":"address","name":"","type":"address"}],"stateMutability":"nonpayable","type":"function"},{"inputs":[],"name":"getAllPools","outputs":[{"internalType":"uint256","name":"","type":"uint256"},{"internalType":"uint256","name":"","type":"uint256"},{"internalType":"contract Pool[]","name":"","type":"address[]"}],"stateMutability":"view","type":"function"},{"inputs":[],"name":"numberOfPoolContracts","outputs":[{"internalType":"uint256","name":"","type":"uint256"}],"stateMutability":"view","type":"function"},{"inputs":[{"internalType":"uint256","name":"","type":"uint256"}],"name":"poolArray","outputs":[{"internalType":"contract Pool","name":"","type":"address"}],"stateMutability":"view","type":"function"},{"inputs":[],"name":"poolName","outputs":[{"internalType":"string","name":"","type":"string"}],"stateMutability":"view","type":"function"}],"bytecode":"0x608060405234801561001057600080fd5b506139ed806100206000396000f3fe60806040523480156200001157600080fd5b50600436106200005e5760003560e01c80630c5f2e99146200006357806382eac7f01462000099578063a677eecd14620000cf578063d88ff1f414620000f1578063f3466dfa1462000115575b600080fd5b6200008160048036038101906200007b919062000419565b62000137565b604051620000909190620005bd565b60405180910390f35b620000b76004803603810190620000b1919062000488565b62000201565b604051620000c69190620005da565b60405180910390f35b620000d962000241565b604051620000e891906200065f565b60405180910390f35b620000fb62000247565b6040516200010c939291906200067c565b60405180910390f35b6200011f620002ec565b6040516200012e9190620005f7565b60405180910390f35b6000808484846040516200014b9062000382565b62000159939291906200061b565b604051809103906000f08015801562000176573d6000803e3d6000fd5b5090506000819080600181540180825580915050600190039060005260206000200160009091909190916101000a81548173ffffffffffffffffffffffffffffffffffffffff021916908373ffffffffffffffffffffffffffffffffffffffff16021790555060016000815480929190620001f1906200088b565b9190505550809150509392505050565b600081815481106200021257600080fd5b906000526020600020016000915054906101000a900473ffffffffffffffffffffffffffffffffffffffff1681565b60015481565b6000806060600154600080549050600080805480602002602001604051908101604052809291908181526020018280548015620002da57602002820191906000526020600020905b8160009054906101000a900473ffffffffffffffffffffffffffffffffffffffff1673ffffffffffffffffffffffffffffffffffffffff16815260200190600101908083116200028f575b50505050509050925092509250909192565b60028054620002fb906200081f565b80601f016020809104026020016040519081016040528092919081815260200182805462000329906200081f565b80156200037a5780601f106200034e576101008083540402835291602001916200037a565b820191906000526020600020905b8154815290600101906020018083116200035c57829003601f168201915b505050505081565b613026806200099283390190565b6000620003a7620003a184620006e9565b620006c0565b905082815260208101848484011115620003c057600080fd5b620003cd848285620007da565b509392505050565b600082601f830112620003e757600080fd5b8135620003f984826020860162000390565b91505092915050565b600081359050620004138162000977565b92915050565b6000806000606084860312156200042f57600080fd5b600084013567ffffffffffffffff8111156200044a57600080fd5b6200045886828701620003d5565b93505060206200046b8682870162000402565b92505060406200047e8682870162000402565b9150509250925092565b6000602082840312156200049b57600080fd5b6000620004ab8482850162000402565b91505092915050565b6000620004c2838362000549565b60208301905092915050565b620004d98162000774565b82525050565b6000620004ec826200072f565b620004f8818562000752565b935062000505836200071f565b8060005b838110156200053c578151620005208882620004b4565b97506200052d8362000745565b92505060018101905062000509565b5085935050505092915050565b6200055481620007b2565b82525050565b6200056581620007b2565b82525050565b600062000578826200073a565b62000584818562000763565b935062000596818560208601620007e9565b620005a18162000966565b840191505092915050565b620005b781620007a8565b82525050565b6000602082019050620005d46000830184620004ce565b92915050565b6000602082019050620005f160008301846200055a565b92915050565b600060208201905081810360008301526200061381846200056b565b905092915050565b600060608201905081810360008301526200063781866200056b565b9050620006486020830185620005ac565b620006576040830184620005ac565b949350505050565b6000602082019050620006766000830184620005ac565b92915050565b6000606082019050620006936000830186620005ac565b620006a26020830185620005ac565b8181036040830152620006b68184620004df565b9050949350505050565b6000620006cc620006df565b9050620006da828262000855565b919050565b6000604051905090565b600067ffffffffffffffff82111562000707576200070662000937565b5b620007128262000966565b9050602081019050919050565b6000819050602082019050919050565b600081519050919050565b600081519050919050565b6000602082019050919050565b600082825260208201905092915050565b600082825260208201905092915050565b6000620007818262000788565b9050919050565b600073ffffffffffffffffffffffffffffffffffffffff82169050919050565b6000819050919050565b6000620007bf82620007c6565b9050919050565b6000620007d38262000788565b9050919050565b82818337600083830152505050565b60005b8381101562000809578082015181840152602081019050620007ec565b8381111562000819576000848401525b50505050565b600060028204905060018216806200083857607f821691505b602082108114156200084f576200084e62000908565b5b50919050565b620008608262000966565b810181811067ffffffffffffffff8211171562000882576200088162000937565b5b80604052505050565b60006200089882620007a8565b91507fffffffffffffffffffffffffffffffffffffffffffffffffffffffffffffffff821415620008ce57620008cd620008d9565b5b600182019050919050565b7f4e487b7100000000000000000000000000000000000000000000000000000000600052601160045260246000fd5b7f4e487b7100000000000000000000000000000000000000000000000000000000600052602260045260246000fd5b7f4e487b7100000000000000000000000000000000000000000000000000000000600052604160045260246000fd5b6000601f19601f8301169050919050565b6200098281620007a8565b81146200098e57600080fd5b5056fe60806040523480156200001157600080fd5b5060405162003026380380620030268339818101604052810190620000379190620001a8565b82600090805190602001906200004f9291906200006f565b5081600181905550806002819055506000600381905550505050620003ab565b8280546200007d90620002b6565b90600052602060002090601f016020900481019282620000a15760008555620000ed565b82601f10620000bc57805160ff1916838001178555620000ed565b82800160010185558215620000ed579182015b82811115620000ec578251825591602001919060010190620000cf565b5b509050620000fc919062000100565b5090565b5b808211156200011b57600081600090555060010162000101565b5090565b600062000136620001308462000240565b62000217565b9050828152602081018484840111156200014f57600080fd5b6200015c84828562000280565b509392505050565b600082601f8301126200017657600080fd5b8151620001888482602086016200011f565b91505092915050565b600081519050620001a28162000391565b92915050565b600080600060608486031215620001be57600080fd5b600084015167ffffffffffffffff811115620001d957600080fd5b620001e78682870162000164565b9350506020620001fa8682870162000191565b92505060406200020d8682870162000191565b9150509250925092565b60006200022362000236565b9050620002318282620002ec565b919050565b6000604051905090565b600067ffffffffffffffff8211156200025e576200025d62000351565b5b620002698262000380565b9050602081019050919050565b6000819050919050565b60005b83811015620002a057808201518184015260208101905062000283565b83811115620002b0576000848401525b50505050565b60006002820490506001821680620002cf57607f821691505b60208210811415620002e657620002e562000322565b5b50919050565b620002f78262000380565b810181811067ffffffffffffffff8211171562000319576200031862000351565b5b80604052505050565b7f4e487b7100000000000000000000000000000000000000000000000000000000600052602260045260246000fd5b7f4e487b7100000000000000000000000000000000000000000000000000000000600052604160045260246000fd5b6000601f19601f8301169050919050565b6200039c8162000276565b8114620003a857600080fd5b50565b612c6b80620003bb6000396000f3fe6080604052600436106100dd5760003560e01c80636e695ce91161007f578063bed34bba11610059578063bed34bba146102bf578063eb4f3d9a146102fc578063f3466dfa14610327578063fc8e3bc314610352576100dd565b80636e695ce9146102245780636f4bda17146102645780638ac7a7421461028f576100dd565b8063116e54c5116100bb578063116e54c514610154578063409101ba1461017f57806354a84c77146101bc5780636ad5d83e146101e7576100dd565b8063072ea61c146100e257806308e94f2a1461010d57806310a37c2614610129575b600080fd5b3480156100ee57600080fd5b506100f7610381565b60405161010491906126bb565b60405180910390f35b61012760048036038101906101229190611e0b565b610387565b005b34801561013557600080fd5b5061013e610b85565b60405161014b9190612494565b60405180910390f35b34801561016057600080fd5b50610169610baf565b60405161017691906126bb565b60405180910390f35b34801561018b57600080fd5b506101a660048036038101906101a191906120d6565b610bb5565b6040516101b39190612494565b60405180910390f35b3480156101c857600080fd5b506101d1610be8565b6040516101de91906126bb565b60405180910390f35b3480156101f357600080fd5b5061020e60048036038101906102099190611de2565b610bee565b60405161021b9190612699565b60405180910390f35b34801561023057600080fd5b5061024b60048036038101906102469190611de2565b61121a565b60405161025b94939291906124ec565b60405180910390f35b34801561027057600080fd5b50610279611387565b60405161028691906126bb565b60405180910390f35b6102a960048036038101906102a49190611f24565b61138d565b6040516102b69190612494565b60405180910390f35b3480156102cb57600080fd5b506102e660048036038101906102e1919061206a565b611821565b6040516102f391906124af565b60405180910390f35b34801561030857600080fd5b5061031161187a565b60405161031e91906126bb565b60405180910390f35b34801561033357600080fd5b5061033c611884565b60405161034991906124ca565b60405180910390f35b34801561035e57600080fd5b50610367611912565b60405161037895949392919061253f565b60405180910390f35b60015481565b60008060009050602088511461039c57600080fd5b60108751146103aa57600080fd5b60088651146103b857600080fd5b60048551146103c657600080fd5b60028451146103d457600080fd5b60005b60016004546103e6919061281f565b8111610aeb57600080600660006007600086815260200190815260200160002060009054906101000a900473ffffffffffffffffffffffffffffffffffffffff1673ffffffffffffffffffffffffffffffffffffffff1673ffffffffffffffffffffffffffffffffffffffff1681526020019081526020016000206040518061012001604052908160008201805461047d906128dd565b80601f01602080910402602001604051908101604052809291908181526020018280546104a9906128dd565b80156104f65780601f106104cb576101008083540402835291602001916104f6565b820191906000526020600020905b8154815290600101906020018083116104d957829003601f168201915b5050505050815260200160018201805480602002602001604051908101604052809291908181526020016000905b828210156105d0578382906000526020600020018054610543906128dd565b80601f016020809104026020016040519081016040528092919081815260200182805461056f906128dd565b80156105bc5780601f10610591576101008083540402835291602001916105bc565b820191906000526020600020905b81548152906001019060200180831161059f57829003601f168201915b505050505081526020019060010190610524565b50505050815260200160028201805480602002602001604051908101604052809291908181526020016000905b828210156106a957838290600052602060002001805461061c906128dd565b80601f0160208091040260200160405190810160405280929190818152602001828054610648906128dd565b80156106955780601f1061066a57610100808354040283529160200191610695565b820191906000526020600020905b81548152906001019060200180831161067857829003601f168201915b5050505050815260200190600101906105fd565b50505050815260200160038201805480602002602001604051908101604052809291908181526020016000905b828210156107825783829060005260206000200180546106f5906128dd565b80601f0160208091040260200160405190810160405280929190818152602001828054610721906128dd565b801561076e5780601f106107435761010080835404028352916020019161076e565b820191906000526020600020905b81548152906001019060200180831161075157829003601f168201915b5050505050815260200190600101906106d6565b50505050815260200160048201805480602002602001604051908101604052809291908181526020016000905b8282101561085b5783829060005260206000200180546107ce906128dd565b80601f01602080910402602001604051908101604052809291908181526020018280546107fa906128dd565b80156108475780601f1061081c57610100808354040283529160200191610847565b820191906000526020600020905b81548152906001019060200180831161082a57829003601f168201915b5050505050815260200190600101906107af565b50505050815260200160058201805480602002602001604051908101604052809291908181526020016000905b828210156109345783829060005260206000200180546108a7906128dd565b80601f01602080910402602001604051908101604052809291908181526020018280546108d3906128dd565b80156109205780601f106108f557610100808354040283529160200191610920565b820191906000526020600020905b81548152906001019060200180831161090357829003601f168201915b505050505081526020019060010190610888565b50505050815260200160068201805461094c906128dd565b80601f0160208091040260200160405190810160405280929190818152602001828054610978906128dd565b80156109c55780601f1061099a576101008083540402835291602001916109c5565b820191906000526020600020905b8154815290600101906020018083116109a857829003601f168201915b505050505081526020016007820160009054906101000a900473ffffffffffffffffffffffffffffffffffffffff1673ffffffffffffffffffffffffffffffffffffffff1673ffffffffffffffffffffffffffffffffffffffff1681526020016007820160149054906101000a900460ff1615151515815250509050610a5281602001518c6001856119c2565b9150610a6581604001518b6001856119c2565b9150610a7881606001518a6001856119c2565b9150610a8b8160800151896001856119c2565b9150610a9e8160a00151886001856119c2565b9150610aae8160c0015187611821565b15610ac357600a82610ac091906127c9565b91505b83821115610ad6578193508060e0015194505b50508080610ae390612940565b9150506103d7565b506000610af783611a90565b905080610b39576040517f08c379a0000000000000000000000000000000000000000000000000000000008152600401610b30906125d9565b60405180910390fd5b82600560006101000a81548173ffffffffffffffffffffffffffffffffffffffff021916908373ffffffffffffffffffffffffffffffffffffffff160217905550505050505050505050565b6000600560009054906101000a900473ffffffffffffffffffffffffffffffffffffffff16905090565b60025481565b60076020528060005260406000206000915054906101000a900473ffffffffffffffffffffffffffffffffffffffff1681565b60035481565b610bf6611ad5565b600660008373ffffffffffffffffffffffffffffffffffffffff1673ffffffffffffffffffffffffffffffffffffffff16815260200190815260200160002060405180610120016040529081600082018054610c51906128dd565b80601f0160208091040260200160405190810160405280929190818152602001828054610c7d906128dd565b8015610cca5780601f10610c9f57610100808354040283529160200191610cca565b820191906000526020600020905b815481529060010190602001808311610cad57829003601f168201915b5050505050815260200160018201805480602002602001604051908101604052809291908181526020016000905b82821015610da4578382906000526020600020018054610d17906128dd565b80601f0160208091040260200160405190810160405280929190818152602001828054610d43906128dd565b8015610d905780601f10610d6557610100808354040283529160200191610d90565b820191906000526020600020905b815481529060010190602001808311610d7357829003601f168201915b505050505081526020019060010190610cf8565b50505050815260200160028201805480602002602001604051908101604052809291908181526020016000905b82821015610e7d578382906000526020600020018054610df0906128dd565b80601f0160208091040260200160405190810160405280929190818152602001828054610e1c906128dd565b8015610e695780601f10610e3e57610100808354040283529160200191610e69565b820191906000526020600020905b815481529060010190602001808311610e4c57829003601f168201915b505050505081526020019060010190610dd1565b50505050815260200160038201805480602002602001604051908101604052809291908181526020016000905b82821015610f56578382906000526020600020018054610ec9906128dd565b80601f0160208091040260200160405190810160405280929190818152602001828054610ef5906128dd565b8015610f425780601f10610f1757610100808354040283529160200191610f42565b820191906000526020600020905b815481529060010190602001808311610f2557829003601f168201915b505050505081526020019060010190610eaa565b50505050815260200160048201805480602002602001604051908101604052809291908181526020016000905b8282101561102f578382906000526020600020018054610fa2906128dd565b80601f0160208091040260200160405190810160405280929190818152602001828054610fce906128dd565b801561101b5780601f10610ff05761010080835404028352916020019161101b565b820191906000526020600020905b815481529060010190602001808311610ffe57829003601f168201915b505050505081526020019060010190610f83565b50505050815260200160058201805480602002602001604051908101604052809291908181526020016000905b8282101561110857838290600052602060002001805461107b906128dd565b80601f01602080910402602001604051908101604052809291908181526020018280546110a7906128dd565b80156110f45780601f106110c9576101008083540402835291602001916110f4565b820191906000526020600020905b8154815290600101906020018083116110d757829003601f168201915b50505050508152602001906001019061105c565b505050508152602001600682018054611120906128dd565b80601f016020809104026020016040519081016040528092919081815260200182805461114c906128dd565b80156111995780601f1061116e57610100808354040283529160200191611199565b820191906000526020600020905b81548152906001019060200180831161117c57829003601f168201915b505050505081526020016007820160009054906101000a900473ffffffffffffffffffffffffffffffffffffffff1673ffffffffffffffffffffffffffffffffffffffff1673ffffffffffffffffffffffffffffffffffffffff1681526020016007820160149054906101000a900460ff1615151515815250509050919050565b600660205280600052604060002060009150905080600001805461123d906128dd565b80601f0160208091040260200160405190810160405280929190818152602001828054611269906128dd565b80156112b65780601f1061128b576101008083540402835291602001916112b6565b820191906000526020600020905b81548152906001019060200180831161129957829003601f168201915b5050505050908060060180546112cb906128dd565b80601f01602080910402602001604051908101604052809291908181526020018280546112f7906128dd565b80156113445780601f1061131957610100808354040283529160200191611344565b820191906000526020600020905b81548152906001019060200180831161132757829003601f168201915b5050505050908060070160009054906101000a900473ffffffffffffffffffffffffffffffffffffffff16908060070160149054906101000a900460ff16905084565b60045481565b600060011515600660003373ffffffffffffffffffffffffffffffffffffffff1673ffffffffffffffffffffffffffffffffffffffff16815260200190815260200160002060070160149054906101000a900460ff1615151415611426576040517f08c379a000000000000000000000000000000000000000000000000000000000815260040161141d90612619565b60405180910390fd5b60015434101561146b576040517f08c379a000000000000000000000000000000000000000000000000000000000815260040161146290612659565b60405180910390fd5b60208751146114af576040517f08c379a00000000000000000000000000000000000000000000000000000000081526004016114a6906125b9565b60405180910390fd5b60108651146114f3576040517f08c379a00000000000000000000000000000000000000000000000000000000081526004016114ea90612679565b60405180910390fd5b6008855114611537576040517f08c379a000000000000000000000000000000000000000000000000000000000815260040161152e906125f9565b60405180910390fd5b600484511461157b576040517f08c379a000000000000000000000000000000000000000000000000000000000815260040161157290612599565b60405180910390fd5b60028351146115bf576040517f08c379a00000000000000000000000000000000000000000000000000000000081526004016115b690612639565b60405180910390fd5b6040518061012001604052808981526020018881526020018781526020018681526020018581526020018481526020018381526020013373ffffffffffffffffffffffffffffffffffffffff16815260200160011515815250600660003373ffffffffffffffffffffffffffffffffffffffff1673ffffffffffffffffffffffffffffffffffffffff1681526020019081526020016000206000820151816000019080519060200190611673929190611b39565b506020820151816001019080519060200190611690929190611bbf565b5060408201518160020190805190602001906116ad929190611bbf565b5060608201518160030190805190602001906116ca929190611bbf565b5060808201518160040190805190602001906116e7929190611bbf565b5060a0820151816005019080519060200190611704929190611bbf565b5060c0820151816006019080519060200190611721929190611b39565b5060e08201518160070160006101000a81548173ffffffffffffffffffffffffffffffffffffffff021916908373ffffffffffffffffffffffffffffffffffffffff1602179055506101008201518160070160146101000a81548160ff0219169083151502179055509050503360076000600454815260200190815260200160002060006101000a81548173ffffffffffffffffffffffffffffffffffffffff021916908373ffffffffffffffffffffffffffffffffffffffff160217905550346003546117ef91906127c9565b6003819055506004600081548092919061180890612940565b9190505550600033905080915050979650505050505050565b600081604051602001611834919061247d565b604051602081830303815290604052805190602001208360405160200161185b919061247d565b6040516020818303038152906040528051906020012014905092915050565b6000600454905090565b60008054611891906128dd565b80601f01602080910402602001604051908101604052809291908181526020018280546118bd906128dd565b801561190a5780601f106118df5761010080835404028352916020019161190a565b820191906000526020600020905b8154815290600101906020018083116118ed57829003601f168201915b505050505081565b606060008060008060008054611927906128dd565b80601f0160208091040260200160405190810160405280929190818152602001828054611953906128dd565b80156119a05780601f10611975576101008083540402835291602001916119a0565b820191906000526020600020905b81548152906001019060200180831161198357829003601f168201915b5050505050945060015493506002549250600354915060045490509091929394565b600080600090505b8451811015611a8457611a5d868281518110611a0f577f4e487b7100000000000000000000000000000000000000000000000000000000600052603260045260246000fd5b6020026020010151868381518110611a50577f4e487b7100000000000000000000000000000000000000000000000000000000600052603260045260246000fd5b6020026020010151611821565b15611a71578383611a6e91906127c9565b92505b8080611a7c90612940565b9150506119ca565b50819050949350505050565b6000808273ffffffffffffffffffffffffffffffffffffffff166108fc6003549081150290604051600060405180830381858888f19350505050905080915050919050565b60405180610120016040528060608152602001606081526020016060815260200160608152602001606081526020016060815260200160608152602001600073ffffffffffffffffffffffffffffffffffffffff1681526020016000151581525090565b828054611b45906128dd565b90600052602060002090601f016020900481019282611b675760008555611bae565b82601f10611b8057805160ff1916838001178555611bae565b82800160010185558215611bae579182015b82811115611bad578251825591602001919060010190611b92565b5b509050611bbb9190611c1f565b5090565b828054828255906000526020600020908101928215611c0e579160200282015b82811115611c0d578251829080519060200190611bfd929190611b39565b5091602001919060010190611bdf565b5b509050611c1b9190611c3c565b5090565b5b80821115611c38576000816000905550600101611c20565b5090565b5b80821115611c5c5760008181611c539190611c60565b50600101611c3d565b5090565b508054611c6c906128dd565b6000825580601f10611c7e5750611c9d565b601f016020900490600052602060002090810190611c9c9190611c1f565b5b50565b6000611cb3611cae846126fb565b6126d6565b90508083825260208201905082856020860282011115611cd257600080fd5b60005b85811015611d1c57813567ffffffffffffffff811115611cf457600080fd5b808601611d018982611da3565b85526020850194506020840193505050600181019050611cd5565b5050509392505050565b6000611d39611d3484612727565b6126d6565b905082815260208101848484011115611d5157600080fd5b611d5c84828561289b565b509392505050565b600081359050611d7381612c07565b92915050565b600082601f830112611d8a57600080fd5b8135611d9a848260208601611ca0565b91505092915050565b600082601f830112611db457600080fd5b8135611dc4848260208601611d26565b91505092915050565b600081359050611ddc81612c1e565b92915050565b600060208284031215611df457600080fd5b6000611e0284828501611d64565b91505092915050565b60008060008060008060c08789031215611e2457600080fd5b600087013567ffffffffffffffff811115611e3e57600080fd5b611e4a89828a01611d79565b965050602087013567ffffffffffffffff811115611e6757600080fd5b611e7389828a01611d79565b955050604087013567ffffffffffffffff811115611e9057600080fd5b611e9c89828a01611d79565b945050606087013567ffffffffffffffff811115611eb957600080fd5b611ec589828a01611d79565b935050608087013567ffffffffffffffff811115611ee257600080fd5b611eee89828a01611d79565b92505060a087013567ffffffffffffffff811115611f0b57600080fd5b611f1789828a01611da3565b9150509295509295509295565b600080600080600080600060e0888a031215611f3f57600080fd5b600088013567ffffffffffffffff811115611f5957600080fd5b611f658a828b01611da3565b975050602088013567ffffffffffffffff811115611f8257600080fd5b611f8e8a828b01611d79565b965050604088013567ffffffffffffffff811115611fab57600080fd5b611fb78a828b01611d79565b955050606088013567ffffffffffffffff811115611fd457600080fd5b611fe08a828b01611d79565b945050608088013567ffffffffffffffff811115611ffd57600080fd5b6120098a828b01611d79565b93505060a088013567ffffffffffffffff81111561202657600080fd5b6120328a828b01611d79565b92505060c088013567ffffffffffffffff81111561204f57600080fd5b61205b8a828b01611da3565b91505092959891949750929550565b6000806040838503121561207d57600080fd5b600083013567ffffffffffffffff81111561209757600080fd5b6120a385828601611da3565b925050602083013567ffffffffffffffff8111156120c057600080fd5b6120cc85828601611da3565b9150509250929050565b6000602082840312156120e857600080fd5b60006120f684828501611dcd565b91505092915050565b600061210b83836121c4565b905092915050565b61211c81612853565b82525050565b61212b81612853565b82525050565b600061213c82612768565b612146818561278b565b93508360208202850161215885612758565b8060005b85811015612194578484038952815161217585826120ff565b94506121808361277e565b925060208a0199505060018101905061215c565b50829750879550505050505092915050565b6121af81612865565b82525050565b6121be81612865565b82525050565b60006121cf82612773565b6121d9818561279c565b93506121e98185602086016128aa565b6121f281612a16565b840191505092915050565b600061220882612773565b61221281856127ad565b93506122228185602086016128aa565b61222b81612a16565b840191505092915050565b600061224182612773565b61224b81856127be565b935061225b8185602086016128aa565b80840191505092915050565b60006122746021836127ad565b915061227f82612a27565b604082019050919050565b60006122976020836127ad565b91506122a282612a76565b602082019050919050565b60006122ba6014836127ad565b91506122c582612a9f565b602082019050919050565b60006122dd6022836127ad565b91506122e882612ac8565b604082019050919050565b60006123006022836127ad565b915061230b82612b17565b604082019050919050565b60006123236021836127ad565b915061232e82612b66565b604082019050919050565b60006123466018836127ad565b915061235182612bb5565b602082019050919050565b60006123696020836127ad565b915061237482612bde565b602082019050919050565b600061012083016000830151848203600086015261239d82826121c4565b915050602083015184820360208601526123b78282612131565b915050604083015184820360408601526123d18282612131565b915050606083015184820360608601526123eb8282612131565b915050608083015184820360808601526124058282612131565b91505060a083015184820360a086015261241f8282612131565b91505060c083015184820360c086015261243982826121c4565b91505060e083015161244e60e0860182612113565b506101008301516124636101008601826121a6565b508091505092915050565b61247781612891565b82525050565b60006124898284612236565b915081905092915050565b60006020820190506124a96000830184612122565b92915050565b60006020820190506124c460008301846121b5565b92915050565b600060208201905081810360008301526124e481846121fd565b905092915050565b6000608082019050818103600083015261250681876121fd565b9050818103602083015261251a81866121fd565b90506125296040830185612122565b61253660608301846121b5565b95945050505050565b600060a082019050818103600083015261255981886121fd565b9050612568602083018761246e565b612575604083018661246e565b612582606083018561246e565b61258f608083018461246e565b9695505050505050565b600060208201905081810360008301526125b281612267565b9050919050565b600060208201905081810360008301526125d28161228a565b9050919050565b600060208201905081810360008301526125f2816122ad565b9050919050565b60006020820190508181036000830152612612816122d0565b9050919050565b60006020820190508181036000830152612632816122f3565b9050919050565b6000602082019050818103600083015261265281612316565b9050919050565b6000602082019050818103600083015261267281612339565b9050919050565b600060208201905081810360008301526126928161235c565b9050919050565b600060208201905081810360008301526126b3818461237f565b905092915050565b60006020820190506126d0600083018461246e565b92915050565b60006126e06126f1565b90506126ec828261290f565b919050565b6000604051905090565b600067ffffffffffffffff821115612716576127156129e7565b5b602082029050602081019050919050565b600067ffffffffffffffff821115612742576127416129e7565b5b61274b82612a16565b9050602081019050919050565b6000819050602082019050919050565b600081519050919050565b600081519050919050565b6000602082019050919050565b600082825260208201905092915050565b600082825260208201905092915050565b600082825260208201905092915050565b600081905092915050565b60006127d482612891565b91506127df83612891565b9250827fffffffffffffffffffffffffffffffffffffffffffffffffffffffffffffffff0382111561281457612813612989565b5b828201905092915050565b600061282a82612891565b915061283583612891565b92508282101561284857612847612989565b5b828203905092915050565b600061285e82612871565b9050919050565b60008115159050919050565b600073ffffffffffffffffffffffffffffffffffffffff82169050919050565b6000819050919050565b82818337600083830152505050565b60005b838110156128c85780820151818401526020810190506128ad565b838111156128d7576000848401525b50505050565b600060028204905060018216806128f557607f821691505b60208210811415612909576129086129b8565b5b50919050565b61291882612a16565b810181811067ffffffffffffffff82111715612937576129366129e7565b5b80604052505050565b600061294b82612891565b91507fffffffffffffffffffffffffffffffffffffffffffffffffffffffffffffffff82141561297e5761297d612989565b5b600182019050919050565b7f4e487b7100000000000000000000000000000000000000000000000000000000600052601160045260246000fd5b7f4e487b7100000000000000000000000000000000000000000000000000000000600052602260045260246000fd5b7f4e487b7100000000000000000000000000000000000000000000000000000000600052604160045260246000fd5b6000601f19601f8301169050919050565b7f726f756e64466f757257696e6e657273206c656e67746820696e636f7272656360008201527f7400000000000000000000000000000000000000000000000000000000000000602082015250565b7f726f756e644f6e6557696e6e657273206c656e67746820696e636f7272656374600082015250565b7f4661696c656420746f2073656e64204574686572000000000000000000000000600082015250565b7f726f756e64546872656557696e6e657273206c656e67746820696e636f72726560008201527f6374000000000000000000000000000000000000000000000000000000000000602082015250565b7f53656e6465722068617320616c726561647920656e746572656420627261636b60008201527f6574000000000000000000000000000000000000000000000000000000000000602082015250565b7f726f756e644669766557696e6e657273206c656e67746820696e636f7272656360008201527f7400000000000000000000000000000000000000000000000000000000000000602082015250565b7f456e74727920666565206e6f742073756666696369656e740000000000000000600082015250565b7f726f756e6454776f57696e6e657273206c656e67746820696e636f7272656374600082015250565b612c1081612853565b8114612c1b57600080fd5b50565b612c2781612891565b8114612c3257600080fd5b5056fea264697066735822122050c682411e2466af665a77594e4feea248b2d007df4550185e1beac6c755d0e864736f6c63430008040033a26469706673582212204e931a172b50e18d3ff320900a443998c6e138fc85af1a1a5e3f93a4b7a064ad64736f6c63430008040033","linkReferences":{},"deployedLinkReferences":{}}