{
  "_format": "hh-sol-artifact-1",
  "contractName": "Pool",
  "sourceName": "contracts/Pool.sol",
  "abi": [
    {
      "inputs": [
        {
          "internalType": "string",
          "name": "_poolName",
          "type": "string"
        },
        {
          "internalType": "int256",
          "name": "_entryFeeInUSD",
          "type": "int256"
        },
        {
          "internalType": "uint256",
          "name": "_maximumPlayers",
          "type": "uint256"
        }
      ],
      "stateMutability": "nonpayable",
      "type": "constructor"
    },
    {
      "inputs": [
        {
          "internalType": "address",
          "name": "",
          "type": "address"
        }
      ],
      "name": "addressToBracketMap",
      "outputs": [
        {
          "internalType": "string",
          "name": "teamName",
          "type": "string"
        },
        {
          "internalType": "string",
          "name": "overallWinner",
          "type": "string"
        },
        {
          "internalType": "address",
          "name": "sender",
          "type": "address"
        },
        {
          "internalType": "bool",
          "name": "hasEntered",
          "type": "bool"
        }
      ],
      "stateMutability": "view",
      "type": "function"
    },
    {
      "inputs": [
        {
          "internalType": "int256",
          "name": "value",
          "type": "int256"
        }
      ],
      "name": "checkEntryFee",
      "outputs": [
        {
          "internalType": "bool",
          "name": "",
          "type": "bool"
        }
      ],
      "stateMutability": "view",
      "type": "function"
    },
    {
      "inputs": [
        {
          "internalType": "string[]",
          "name": "_roundOneWinners",
          "type": "string[]"
        },
        {
          "internalType": "string[]",
          "name": "_roundTwoWinners",
          "type": "string[]"
        },
        {
          "internalType": "string[]",
          "name": "_roundThreeWinners",
          "type": "string[]"
        },
        {
          "internalType": "string[]",
          "name": "_roundFourWinners",
          "type": "string[]"
        },
        {
          "internalType": "string[]",
          "name": "_roundFiveWinners",
          "type": "string[]"
        },
        {
          "internalType": "string",
          "name": "_overallWinner",
          "type": "string"
        }
      ],
      "name": "closePool",
      "outputs": [],
      "stateMutability": "payable",
      "type": "function"
    },
    {
      "inputs": [
        {
          "internalType": "string",
          "name": "_teamName",
          "type": "string"
        },
        {
          "internalType": "string[]",
          "name": "_roundOneWinners",
          "type": "string[]"
        },
        {
          "internalType": "string[]",
          "name": "_roundTwoWinners",
          "type": "string[]"
        },
        {
          "internalType": "string[]",
          "name": "_roundThreeWinners",
          "type": "string[]"
        },
        {
          "internalType": "string[]",
          "name": "_roundFourWinners",
          "type": "string[]"
        },
        {
          "internalType": "string[]",
          "name": "_roundFiveWinners",
          "type": "string[]"
        },
        {
          "internalType": "string",
          "name": "_overallWinner",
          "type": "string"
        }
      ],
      "name": "enterPool",
      "outputs": [
        {
          "internalType": "address",
          "name": "",
          "type": "address"
        }
      ],
      "stateMutability": "payable",
      "type": "function"
    },
    {
      "inputs": [],
      "name": "entryFeeInUSD",
      "outputs": [
        {
          "internalType": "int256",
          "name": "",
          "type": "int256"
        }
      ],
      "stateMutability": "view",
      "type": "function"
    },
    {
      "inputs": [],
      "name": "etherInPot",
      "outputs": [
        {
          "internalType": "uint256",
          "name": "",
          "type": "uint256"
        }
      ],
      "stateMutability": "view",
      "type": "function"
    },
    {
      "inputs": [],
      "name": "getCurrentEntryFeeInWei",
      "outputs": [
        {
          "internalType": "int256",
          "name": "",
          "type": "int256"
        }
      ],
      "stateMutability": "view",
      "type": "function"
    },
    {
      "inputs": [],
      "name": "getLatestPrice",
      "outputs": [
        {
          "internalType": "int256",
          "name": "",
          "type": "int256"
        }
      ],
      "stateMutability": "view",
      "type": "function"
    },
    {
      "inputs": [
        {
          "internalType": "address",
          "name": "_addr",
          "type": "address"
        }
      ],
      "name": "getPlayersEntry",
      "outputs": [
        {
          "components": [
            {
              "internalType": "string",
              "name": "teamName",
              "type": "string"
            },
            {
              "internalType": "string[]",
              "name": "roundOneWinners",
              "type": "string[]"
            },
            {
              "internalType": "string[]",
              "name": "roundTwoWinners",
              "type": "string[]"
            },
            {
              "internalType": "string[]",
              "name": "roundThreeWinners",
              "type": "string[]"
            },
            {
              "internalType": "string[]",
              "name": "roundFourWinners",
              "type": "string[]"
            },
            {
              "internalType": "string[]",
              "name": "roundFiveWinners",
              "type": "string[]"
            },
            {
              "internalType": "string",
              "name": "overallWinner",
              "type": "string"
            },
            {
              "internalType": "address",
              "name": "sender",
              "type": "address"
            },
            {
              "internalType": "bool",
              "name": "hasEntered",
              "type": "bool"
            }
          ],
          "internalType": "struct Pool.BracketEntry",
          "name": "",
          "type": "tuple"
        }
      ],
      "stateMutability": "view",
      "type": "function"
    },
    {
      "inputs": [],
      "name": "maximumPlayers",
      "outputs": [
        {
          "internalType": "uint256",
          "name": "",
          "type": "uint256"
        }
      ],
      "stateMutability": "view",
      "type": "function"
    },
    {
      "inputs": [],
      "name": "numberOfPlayers",
      "outputs": [
        {
          "internalType": "uint256",
          "name": "",
          "type": "uint256"
        }
      ],
      "stateMutability": "view",
      "type": "function"
    },
    {
      "inputs": [],
      "name": "poolName",
      "outputs": [
        {
          "internalType": "string",
          "name": "",
          "type": "string"
        }
      ],
      "stateMutability": "view",
      "type": "function"
    },
    {
      "inputs": [],
      "name": "retrieveRules",
      "outputs": [
        {
          "internalType": "string",
          "name": "_poolName",
          "type": "string"
        },
        {
          "internalType": "int256",
          "name": "_entryFeeInUSD",
          "type": "int256"
        },
        {
          "internalType": "uint256",
          "name": "_maximumPlayers",
          "type": "uint256"
        },
        {
          "internalType": "uint256",
          "name": "_etherInPot",
          "type": "uint256"
        },
        {
          "internalType": "uint256",
          "name": "_numberOfPlayers",
          "type": "uint256"
        }
      ],
      "stateMutability": "view",
      "type": "function"
    },
    {
      "inputs": [
        {
          "internalType": "uint256",
          "name": "",
          "type": "uint256"
        }
      ],
      "name": "uintToAddressMap",
      "outputs": [
        {
          "internalType": "address",
          "name": "",
          "type": "address"
        }
      ],
      "stateMutability": "view",
      "type": "function"
    },
    {
      "inputs": [],
      "name": "winner",
      "outputs": [
        {
          "internalType": "address",
          "name": "",
          "type": "address"
        }
      ],
      "stateMutability": "view",
      "type": "function"
    }
  ],
  "bytecode": "0x60806040523480156200001157600080fd5b506040516200360138038062003601833981810160405281019062000037919062000225565b82600090805190602001906200004f929190620000d5565b506305f5e10082620000629190620002f3565b600181905550806002819055506000600381905550739326bfa02add2366b30bacb125260af641031331600660006101000a81548173ffffffffffffffffffffffffffffffffffffffff021916908373ffffffffffffffffffffffffffffffffffffffff160217905550505050620005a2565b828054620000e39062000464565b90600052602060002090601f01602090048101928262000107576000855562000153565b82601f106200012257805160ff191683800117855562000153565b8280016001018555821562000153579182015b828111156200015257825182559160200191906001019062000135565b5b50905062000162919062000166565b5090565b5b808211156200018157600081600090555060010162000167565b5090565b60006200019c6200019684620002bd565b62000294565b905082815260208101848484011115620001b557600080fd5b620001c28482856200042e565b509392505050565b600081519050620001db816200056e565b92915050565b600082601f830112620001f357600080fd5b81516200020584826020860162000185565b91505092915050565b6000815190506200021f8162000588565b92915050565b6000806000606084860312156200023b57600080fd5b600084015167ffffffffffffffff8111156200025657600080fd5b6200026486828701620001e1565b93505060206200027786828701620001ca565b92505060406200028a868287016200020e565b9150509250925092565b6000620002a0620002b3565b9050620002ae82826200049a565b919050565b6000604051905090565b600067ffffffffffffffff821115620002db57620002da6200052e565b5b620002e6826200055d565b9050602081019050919050565b600062000300826200041a565b91506200030d836200041a565b9250827f7fffffffffffffffffffffffffffffffffffffffffffffffffffffffffffffff04821160008413600084131616156200034f576200034e620004d0565b5b817f800000000000000000000000000000000000000000000000000000000000000005831260008412600084131616156200038f576200038e620004d0565b5b827f80000000000000000000000000000000000000000000000000000000000000000582126000841360008412161615620003cf57620003ce620004d0565b5b827f7fffffffffffffffffffffffffffffffffffffffffffffffffffffffffffffff05821260008412600084121616156200040f576200040e620004d0565b5b828202905092915050565b6000819050919050565b6000819050919050565b60005b838110156200044e57808201518184015260208101905062000431565b838111156200045e576000848401525b50505050565b600060028204905060018216806200047d57607f821691505b60208210811415620004945762000493620004ff565b5b50919050565b620004a5826200055d565b810181811067ffffffffffffffff82111715620004c757620004c66200052e565b5b80604052505050565b7f4e487b7100000000000000000000000000000000000000000000000000000000600052601160045260246000fd5b7f4e487b7100000000000000000000000000000000000000000000000000000000600052602260045260246000fd5b7f4e487b7100000000000000000000000000000000000000000000000000000000600052604160045260246000fd5b6000601f19601f8301169050919050565b62000579816200041a565b81146200058557600080fd5b50565b620005938162000424565b81146200059f57600080fd5b50565b61304f80620005b26000396000f3fe6080604052600436106100e85760003560e01c80638ac7a7421161008a578063e329d58e11610059578063e329d58e146102f2578063ea9969941461031d578063f3466dfa1461035d578063fc8e3bc314610388576100e8565b80638ac7a742146102415780638e15f473146102715780638f5dcde41461029c578063dfbf53ae146102c7576100e8565b806354a84c77116100c657806354a84c77146101715780636ad5d83e1461019c5780636f4bda17146101d95780638406541c14610204576100e8565b8063034cb004146100ed57806308e94f2a1461012a578063116e54c514610146575b600080fd5b3480156100f957600080fd5b50610114600480360381019061010f919061221b565b6103b7565b604051610121919061265f565b60405180910390f35b610144600480360381019061013f9190611f93565b6103ea565b005b34801561015257600080fd5b5061015b610be8565b60405161016891906128a1565b60405180910390f35b34801561017d57600080fd5b50610186610bee565b60405161019391906128a1565b60405180910390f35b3480156101a857600080fd5b506101c360048036038101906101be9190611f6a565b610bf4565b6040516101d0919061287f565b60405180910390f35b3480156101e557600080fd5b506101ee611220565b6040516101fb91906128a1565b60405180910390f35b34801561021057600080fd5b5061022b600480360381019061022691906120ac565b611226565b604051610238919061267a565b60405180910390f35b61025b600480360381019061025691906120d5565b61123a565b604051610268919061265f565b60405180910390f35b34801561027d57600080fd5b506102866116d1565b6040516102939190612695565b60405180910390f35b3480156102a857600080fd5b506102b161178f565b6040516102be9190612695565b60405180910390f35b3480156102d357600080fd5b506102dc6117c6565b6040516102e9919061265f565b60405180910390f35b3480156102fe57600080fd5b506103076117ec565b6040516103149190612695565b60405180910390f35b34801561032957600080fd5b50610344600480360381019061033f9190611f6a565b6117f2565b604051610354949392919061272c565b60405180910390f35b34801561036957600080fd5b5061037261195f565b60405161037f91906126b0565b60405180910390f35b34801561039457600080fd5b5061039d6119ed565b6040516103ae9594939291906126d2565b60405180910390f35b60086020528060005260406000206000915054906101000a900473ffffffffffffffffffffffffffffffffffffffff1681565b6000806000905060208851146103ff57600080fd5b601087511461040d57600080fd5b600886511461041b57600080fd5b600485511461042957600080fd5b600284511461043757600080fd5b60005b60016004546104499190612b86565b8111610b4e57600080600760006008600086815260200190815260200160002060009054906101000a900473ffffffffffffffffffffffffffffffffffffffff1673ffffffffffffffffffffffffffffffffffffffff1673ffffffffffffffffffffffffffffffffffffffff168152602001908152602001600020604051806101200160405290816000820180546104e090612c64565b80601f016020809104026020016040519081016040528092919081815260200182805461050c90612c64565b80156105595780601f1061052e57610100808354040283529160200191610559565b820191906000526020600020905b81548152906001019060200180831161053c57829003601f168201915b5050505050815260200160018201805480602002602001604051908101604052809291908181526020016000905b828210156106335783829060005260206000200180546105a690612c64565b80601f01602080910402602001604051908101604052809291908181526020018280546105d290612c64565b801561061f5780601f106105f45761010080835404028352916020019161061f565b820191906000526020600020905b81548152906001019060200180831161060257829003601f168201915b505050505081526020019060010190610587565b50505050815260200160028201805480602002602001604051908101604052809291908181526020016000905b8282101561070c57838290600052602060002001805461067f90612c64565b80601f01602080910402602001604051908101604052809291908181526020018280546106ab90612c64565b80156106f85780601f106106cd576101008083540402835291602001916106f8565b820191906000526020600020905b8154815290600101906020018083116106db57829003601f168201915b505050505081526020019060010190610660565b50505050815260200160038201805480602002602001604051908101604052809291908181526020016000905b828210156107e557838290600052602060002001805461075890612c64565b80601f016020809104026020016040519081016040528092919081815260200182805461078490612c64565b80156107d15780601f106107a6576101008083540402835291602001916107d1565b820191906000526020600020905b8154815290600101906020018083116107b457829003601f168201915b505050505081526020019060010190610739565b50505050815260200160048201805480602002602001604051908101604052809291908181526020016000905b828210156108be57838290600052602060002001805461083190612c64565b80601f016020809104026020016040519081016040528092919081815260200182805461085d90612c64565b80156108aa5780601f1061087f576101008083540402835291602001916108aa565b820191906000526020600020905b81548152906001019060200180831161088d57829003601f168201915b505050505081526020019060010190610812565b50505050815260200160058201805480602002602001604051908101604052809291908181526020016000905b8282101561099757838290600052602060002001805461090a90612c64565b80601f016020809104026020016040519081016040528092919081815260200182805461093690612c64565b80156109835780601f1061095857610100808354040283529160200191610983565b820191906000526020600020905b81548152906001019060200180831161096657829003601f168201915b5050505050815260200190600101906108eb565b5050505081526020016006820180546109af90612c64565b80601f01602080910402602001604051908101604052809291908181526020018280546109db90612c64565b8015610a285780601f106109fd57610100808354040283529160200191610a28565b820191906000526020600020905b815481529060010190602001808311610a0b57829003601f168201915b505050505081526020016007820160009054906101000a900473ffffffffffffffffffffffffffffffffffffffff1673ffffffffffffffffffffffffffffffffffffffff1673ffffffffffffffffffffffffffffffffffffffff1681526020016007820160149054906101000a900460ff1615151515815250509050610ab581602001518c600185611a9d565b9150610ac881604001518b600185611a9d565b9150610adb81606001518a600185611a9d565b9150610aee816080015189600185611a9d565b9150610b018160a0015188600185611a9d565b9150610b118160c0015187611b6b565b15610b2657600a82610b2391906129af565b91505b83821115610b39578193508060e0015194505b50508080610b4690612cc7565b91505061043a565b506000610b5a83611bc4565b905080610b9c576040517f08c379a0000000000000000000000000000000000000000000000000000000008152600401610b93906127bf565b60405180910390fd5b82600560006101000a81548173ffffffffffffffffffffffffffffffffffffffff021916908373ffffffffffffffffffffffffffffffffffffffff160217905550505050505050505050565b60025481565b60035481565b610bfc611c09565b600760008373ffffffffffffffffffffffffffffffffffffffff1673ffffffffffffffffffffffffffffffffffffffff16815260200190815260200160002060405180610120016040529081600082018054610c5790612c64565b80601f0160208091040260200160405190810160405280929190818152602001828054610c8390612c64565b8015610cd05780601f10610ca557610100808354040283529160200191610cd0565b820191906000526020600020905b815481529060010190602001808311610cb357829003601f168201915b5050505050815260200160018201805480602002602001604051908101604052809291908181526020016000905b82821015610daa578382906000526020600020018054610d1d90612c64565b80601f0160208091040260200160405190810160405280929190818152602001828054610d4990612c64565b8015610d965780601f10610d6b57610100808354040283529160200191610d96565b820191906000526020600020905b815481529060010190602001808311610d7957829003601f168201915b505050505081526020019060010190610cfe565b50505050815260200160028201805480602002602001604051908101604052809291908181526020016000905b82821015610e83578382906000526020600020018054610df690612c64565b80601f0160208091040260200160405190810160405280929190818152602001828054610e2290612c64565b8015610e6f5780601f10610e4457610100808354040283529160200191610e6f565b820191906000526020600020905b815481529060010190602001808311610e5257829003601f168201915b505050505081526020019060010190610dd7565b50505050815260200160038201805480602002602001604051908101604052809291908181526020016000905b82821015610f5c578382906000526020600020018054610ecf90612c64565b80601f0160208091040260200160405190810160405280929190818152602001828054610efb90612c64565b8015610f485780601f10610f1d57610100808354040283529160200191610f48565b820191906000526020600020905b815481529060010190602001808311610f2b57829003601f168201915b505050505081526020019060010190610eb0565b50505050815260200160048201805480602002602001604051908101604052809291908181526020016000905b82821015611035578382906000526020600020018054610fa890612c64565b80601f0160208091040260200160405190810160405280929190818152602001828054610fd490612c64565b80156110215780601f10610ff657610100808354040283529160200191611021565b820191906000526020600020905b81548152906001019060200180831161100457829003601f168201915b505050505081526020019060010190610f89565b50505050815260200160058201805480602002602001604051908101604052809291908181526020016000905b8282101561110e57838290600052602060002001805461108190612c64565b80601f01602080910402602001604051908101604052809291908181526020018280546110ad90612c64565b80156110fa5780601f106110cf576101008083540402835291602001916110fa565b820191906000526020600020905b8154815290600101906020018083116110dd57829003601f168201915b505050505081526020019060010190611062565b50505050815260200160068201805461112690612c64565b80601f016020809104026020016040519081016040528092919081815260200182805461115290612c64565b801561119f5780601f106111745761010080835404028352916020019161119f565b820191906000526020600020905b81548152906001019060200180831161118257829003601f168201915b505050505081526020016007820160009054906101000a900473ffffffffffffffffffffffffffffffffffffffff1673ffffffffffffffffffffffffffffffffffffffff1673ffffffffffffffffffffffffffffffffffffffff1681526020016007820160149054906101000a900460ff1615151515815250509050919050565b60045481565b600061123061178f565b8212159050919050565b600060011515600760003373ffffffffffffffffffffffffffffffffffffffff1673ffffffffffffffffffffffffffffffffffffffff16815260200190815260200160002060070160149054906101000a900460ff16151514156112d3576040517f08c379a00000000000000000000000000000000000000000000000000000000081526004016112ca906127ff565b60405180910390fd5b6112dc34611226565b61131b576040517f08c379a00000000000000000000000000000000000000000000000000000000081526004016113129061283f565b60405180910390fd5b602087511461135f576040517f08c379a00000000000000000000000000000000000000000000000000000000081526004016113569061279f565b60405180910390fd5b60108651146113a3576040517f08c379a000000000000000000000000000000000000000000000000000000000815260040161139a9061285f565b60405180910390fd5b60088551146113e7576040517f08c379a00000000000000000000000000000000000000000000000000000000081526004016113de906127df565b60405180910390fd5b600484511461142b576040517f08c379a00000000000000000000000000000000000000000000000000000000081526004016114229061277f565b60405180910390fd5b600283511461146f576040517f08c379a00000000000000000000000000000000000000000000000000000000081526004016114669061281f565b60405180910390fd5b6040518061012001604052808981526020018881526020018781526020018681526020018581526020018481526020018381526020013373ffffffffffffffffffffffffffffffffffffffff16815260200160011515815250600760003373ffffffffffffffffffffffffffffffffffffffff1673ffffffffffffffffffffffffffffffffffffffff1681526020019081526020016000206000820151816000019080519060200190611523929190611c6d565b506020820151816001019080519060200190611540929190611cf3565b50604082015181600201908051906020019061155d929190611cf3565b50606082015181600301908051906020019061157a929190611cf3565b506080820151816004019080519060200190611597929190611cf3565b5060a08201518160050190805190602001906115b4929190611cf3565b5060c08201518160060190805190602001906115d1929190611c6d565b5060e08201518160070160006101000a81548173ffffffffffffffffffffffffffffffffffffffff021916908373ffffffffffffffffffffffffffffffffffffffff1602179055506101008201518160070160146101000a81548160ff0219169083151502179055509050503360086000600454815260200190815260200160002060006101000a81548173ffffffffffffffffffffffffffffffffffffffff021916908373ffffffffffffffffffffffffffffffffffffffff1602179055503460035461169f91906129af565b600381905550600460008154809291906116b890612cc7565b9190505550600033905080915050979650505050505050565b600080600080600080600660009054906101000a900473ffffffffffffffffffffffffffffffffffffffff1673ffffffffffffffffffffffffffffffffffffffff1663feaf968c6040518163ffffffff1660e01b815260040160a06040518083038186803b15801561174257600080fd5b505afa158015611756573d6000803e3d6000fd5b505050506040513d601f19601f8201168201806040525081019061177a9190612244565b94509450945094509450839550505050505090565b600080670de0b6b3a76400006001546117a89190612a6f565b90506117b26116d1565b816117bd9190612a05565b90508091505090565b600560009054906101000a900473ffffffffffffffffffffffffffffffffffffffff1681565b60015481565b600760205280600052604060002060009150905080600001805461181590612c64565b80601f016020809104026020016040519081016040528092919081815260200182805461184190612c64565b801561188e5780601f106118635761010080835404028352916020019161188e565b820191906000526020600020905b81548152906001019060200180831161187157829003601f168201915b5050505050908060060180546118a390612c64565b80601f01602080910402602001604051908101604052809291908181526020018280546118cf90612c64565b801561191c5780601f106118f15761010080835404028352916020019161191c565b820191906000526020600020905b8154815290600101906020018083116118ff57829003601f168201915b5050505050908060070160009054906101000a900473ffffffffffffffffffffffffffffffffffffffff16908060070160149054906101000a900460ff16905084565b6000805461196c90612c64565b80601f016020809104026020016040519081016040528092919081815260200182805461199890612c64565b80156119e55780601f106119ba576101008083540402835291602001916119e5565b820191906000526020600020905b8154815290600101906020018083116119c857829003601f168201915b505050505081565b606060008060008060008054611a0290612c64565b80601f0160208091040260200160405190810160405280929190818152602001828054611a2e90612c64565b8015611a7b5780601f10611a5057610100808354040283529160200191611a7b565b820191906000526020600020905b815481529060010190602001808311611a5e57829003601f168201915b5050505050945060015493506002549250600354915060045490509091929394565b600080600090505b8451811015611b5f57611b38868281518110611aea577f4e487b7100000000000000000000000000000000000000000000000000000000600052603260045260246000fd5b6020026020010151868381518110611b2b577f4e487b7100000000000000000000000000000000000000000000000000000000600052603260045260246000fd5b6020026020010151611b6b565b15611b4c578383611b4991906129af565b92505b8080611b5790612cc7565b915050611aa5565b50819050949350505050565b600081604051602001611b7e9190612648565b6040516020818303038152906040528051906020012083604051602001611ba59190612648565b6040516020818303038152906040528051906020012014905092915050565b6000808273ffffffffffffffffffffffffffffffffffffffff166108fc6003549081150290604051600060405180830381858888f19350505050905080915050919050565b60405180610120016040528060608152602001606081526020016060815260200160608152602001606081526020016060815260200160608152602001600073ffffffffffffffffffffffffffffffffffffffff1681526020016000151581525090565b828054611c7990612c64565b90600052602060002090601f016020900481019282611c9b5760008555611ce2565b82601f10611cb457805160ff1916838001178555611ce2565b82800160010185558215611ce2579182015b82811115611ce1578251825591602001919060010190611cc6565b5b509050611cef9190611d53565b5090565b828054828255906000526020600020908101928215611d42579160200282015b82811115611d41578251829080519060200190611d31929190611c6d565b5091602001919060010190611d13565b5b509050611d4f9190611d70565b5090565b5b80821115611d6c576000816000905550600101611d54565b5090565b5b80821115611d905760008181611d879190611d94565b50600101611d71565b5090565b508054611da090612c64565b6000825580601f10611db25750611dd1565b601f016020900490600052602060002090810190611dd09190611d53565b5b50565b6000611de7611de2846128e1565b6128bc565b90508083825260208201905082856020860282011115611e0657600080fd5b60005b85811015611e5057813567ffffffffffffffff811115611e2857600080fd5b808601611e358982611f01565b85526020850194506020840193505050600181019050611e09565b5050509392505050565b6000611e6d611e688461290d565b6128bc565b905082815260208101848484011115611e8557600080fd5b611e90848285612c22565b509392505050565b600081359050611ea781612fbd565b92915050565b600082601f830112611ebe57600080fd5b8135611ece848260208601611dd4565b91505092915050565b600081359050611ee681612fd4565b92915050565b600081519050611efb81612fd4565b92915050565b600082601f830112611f1257600080fd5b8135611f22848260208601611e5a565b91505092915050565b600081359050611f3a81612feb565b92915050565b600081519050611f4f81612feb565b92915050565b600081519050611f6481613002565b92915050565b600060208284031215611f7c57600080fd5b6000611f8a84828501611e98565b91505092915050565b60008060008060008060c08789031215611fac57600080fd5b600087013567ffffffffffffffff811115611fc657600080fd5b611fd289828a01611ead565b965050602087013567ffffffffffffffff811115611fef57600080fd5b611ffb89828a01611ead565b955050604087013567ffffffffffffffff81111561201857600080fd5b61202489828a01611ead565b945050606087013567ffffffffffffffff81111561204157600080fd5b61204d89828a01611ead565b935050608087013567ffffffffffffffff81111561206a57600080fd5b61207689828a01611ead565b92505060a087013567ffffffffffffffff81111561209357600080fd5b61209f89828a01611f01565b9150509295509295509295565b6000602082840312156120be57600080fd5b60006120cc84828501611ed7565b91505092915050565b600080600080600080600060e0888a0312156120f057600080fd5b600088013567ffffffffffffffff81111561210a57600080fd5b6121168a828b01611f01565b975050602088013567ffffffffffffffff81111561213357600080fd5b61213f8a828b01611ead565b965050604088013567ffffffffffffffff81111561215c57600080fd5b6121688a828b01611ead565b955050606088013567ffffffffffffffff81111561218557600080fd5b6121918a828b01611ead565b945050608088013567ffffffffffffffff8111156121ae57600080fd5b6121ba8a828b01611ead565b93505060a088013567ffffffffffffffff8111156121d757600080fd5b6121e38a828b01611ead565b92505060c088013567ffffffffffffffff81111561220057600080fd5b61220c8a828b01611f01565b91505092959891949750929550565b60006020828403121561222d57600080fd5b600061223b84828501611f2b565b91505092915050565b600080600080600060a0868803121561225c57600080fd5b600061226a88828901611f55565b955050602061227b88828901611eec565b945050604061228c88828901611f40565b935050606061229d88828901611f40565b92505060806122ae88828901611f55565b9150509295509295909350565b60006122c7838361238f565b905092915050565b6122d881612bba565b82525050565b6122e781612bba565b82525050565b60006122f88261294e565b6123028185612971565b9350836020820285016123148561293e565b8060005b85811015612350578484038952815161233185826122bb565b945061233c83612964565b925060208a01995050600181019050612318565b50829750879550505050505092915050565b61236b81612bcc565b82525050565b61237a81612bcc565b82525050565b61238981612bd8565b82525050565b600061239a82612959565b6123a48185612982565b93506123b4818560208601612c31565b6123bd81612dcc565b840191505092915050565b60006123d382612959565b6123dd8185612993565b93506123ed818560208601612c31565b6123f681612dcc565b840191505092915050565b600061240c82612959565b61241681856129a4565b9350612426818560208601612c31565b80840191505092915050565b600061243f602183612993565b915061244a82612ddd565b604082019050919050565b6000612462602083612993565b915061246d82612e2c565b602082019050919050565b6000612485601483612993565b915061249082612e55565b602082019050919050565b60006124a8602283612993565b91506124b382612e7e565b604082019050919050565b60006124cb602283612993565b91506124d682612ecd565b604082019050919050565b60006124ee602183612993565b91506124f982612f1c565b604082019050919050565b6000612511601883612993565b915061251c82612f6b565b602082019050919050565b6000612534602083612993565b915061253f82612f94565b602082019050919050565b6000610120830160008301518482036000860152612568828261238f565b9150506020830151848203602086015261258282826122ed565b9150506040830151848203604086015261259c82826122ed565b915050606083015184820360608601526125b682826122ed565b915050608083015184820360808601526125d082826122ed565b91505060a083015184820360a08601526125ea82826122ed565b91505060c083015184820360c0860152612604828261238f565b91505060e083015161261960e08601826122cf565b5061010083015161262e610100860182612362565b508091505092915050565b61264281612c02565b82525050565b60006126548284612401565b915081905092915050565b600060208201905061267460008301846122de565b92915050565b600060208201905061268f6000830184612371565b92915050565b60006020820190506126aa6000830184612380565b92915050565b600060208201905081810360008301526126ca81846123c8565b905092915050565b600060a08201905081810360008301526126ec81886123c8565b90506126fb6020830187612380565b6127086040830186612639565b6127156060830185612639565b6127226080830184612639565b9695505050505050565b6000608082019050818103600083015261274681876123c8565b9050818103602083015261275a81866123c8565b905061276960408301856122de565b6127766060830184612371565b95945050505050565b6000602082019050818103600083015261279881612432565b9050919050565b600060208201905081810360008301526127b881612455565b9050919050565b600060208201905081810360008301526127d881612478565b9050919050565b600060208201905081810360008301526127f88161249b565b9050919050565b60006020820190508181036000830152612818816124be565b9050919050565b60006020820190508181036000830152612838816124e1565b9050919050565b6000602082019050818103600083015261285881612504565b9050919050565b6000602082019050818103600083015261287881612527565b9050919050565b60006020820190508181036000830152612899818461254a565b905092915050565b60006020820190506128b66000830184612639565b92915050565b60006128c66128d7565b90506128d28282612c96565b919050565b6000604051905090565b600067ffffffffffffffff8211156128fc576128fb612d9d565b5b602082029050602081019050919050565b600067ffffffffffffffff82111561292857612927612d9d565b5b61293182612dcc565b9050602081019050919050565b6000819050602082019050919050565b600081519050919050565b600081519050919050565b6000602082019050919050565b600082825260208201905092915050565b600082825260208201905092915050565b600082825260208201905092915050565b600081905092915050565b60006129ba82612c02565b91506129c583612c02565b9250827fffffffffffffffffffffffffffffffffffffffffffffffffffffffffffffffff038211156129fa576129f9612d10565b5b828201905092915050565b6000612a1082612bd8565b9150612a1b83612bd8565b925082612a2b57612a2a612d3f565b5b600160000383147f800000000000000000000000000000000000000000000000000000000000000083141615612a6457612a63612d10565b5b828205905092915050565b6000612a7a82612bd8565b9150612a8583612bd8565b9250827f7fffffffffffffffffffffffffffffffffffffffffffffffffffffffffffffff0482116000841360008413161615612ac457612ac3612d10565b5b817f80000000000000000000000000000000000000000000000000000000000000000583126000841260008413161615612b0157612b00612d10565b5b827f80000000000000000000000000000000000000000000000000000000000000000582126000841360008412161615612b3e57612b3d612d10565b5b827f7fffffffffffffffffffffffffffffffffffffffffffffffffffffffffffffff0582126000841260008412161615612b7b57612b7a612d10565b5b828202905092915050565b6000612b9182612c02565b9150612b9c83612c02565b925082821015612baf57612bae612d10565b5b828203905092915050565b6000612bc582612be2565b9050919050565b60008115159050919050565b6000819050919050565b600073ffffffffffffffffffffffffffffffffffffffff82169050919050565b6000819050919050565b600069ffffffffffffffffffff82169050919050565b82818337600083830152505050565b60005b83811015612c4f578082015181840152602081019050612c34565b83811115612c5e576000848401525b50505050565b60006002820490506001821680612c7c57607f821691505b60208210811415612c9057612c8f612d6e565b5b50919050565b612c9f82612dcc565b810181811067ffffffffffffffff82111715612cbe57612cbd612d9d565b5b80604052505050565b6000612cd282612c02565b91507fffffffffffffffffffffffffffffffffffffffffffffffffffffffffffffffff821415612d0557612d04612d10565b5b600182019050919050565b7f4e487b7100000000000000000000000000000000000000000000000000000000600052601160045260246000fd5b7f4e487b7100000000000000000000000000000000000000000000000000000000600052601260045260246000fd5b7f4e487b7100000000000000000000000000000000000000000000000000000000600052602260045260246000fd5b7f4e487b7100000000000000000000000000000000000000000000000000000000600052604160045260246000fd5b6000601f19601f8301169050919050565b7f726f756e64466f757257696e6e657273206c656e67746820696e636f7272656360008201527f7400000000000000000000000000000000000000000000000000000000000000602082015250565b7f726f756e644f6e6557696e6e657273206c656e67746820696e636f7272656374600082015250565b7f4661696c656420746f2073656e64204574686572000000000000000000000000600082015250565b7f726f756e64546872656557696e6e657273206c656e67746820696e636f72726560008201527f6374000000000000000000000000000000000000000000000000000000000000602082015250565b7f53656e6465722068617320616c726561647920656e746572656420627261636b60008201527f6574000000000000000000000000000000000000000000000000000000000000602082015250565b7f726f756e644669766557696e6e657273206c656e67746820696e636f7272656360008201527f7400000000000000000000000000000000000000000000000000000000000000602082015250565b7f456e74727920666565206e6f742073756666696369656e740000000000000000600082015250565b7f726f756e6454776f57696e6e657273206c656e67746820696e636f7272656374600082015250565b612fc681612bba565b8114612fd157600080fd5b50565b612fdd81612bd8565b8114612fe857600080fd5b50565b612ff481612c02565b8114612fff57600080fd5b50565b61300b81612c0c565b811461301657600080fd5b5056fea2646970667358221220a41b6ab0a4014f24aab01710db6f1abc52e91b448336e3739c07a9474b5a665364736f6c63430008040033",
  "linkReferences": {},
  "deployedLinkReferences": {}
}